:020000040800F2
:10000000A80D0020CD010008BB15000879140008D8
:10001000B9150008CF020008651D000800000000A7
:100020000000000000000000000000009F19000810
:1000300007030008000000009D190008A11900082E
:10004000E7010008E7010008E7010008E7010008F0
:10005000E7010008E7010008E7010008E7010008E0
:10006000E7010008E7010008E7010008E7010008D0
:10007000E7010008E7010008E7010008D1020008D5
:10008000E7010008E7010008E7010008E7010008B0
:10009000E7010008E7010008E7010008E7010008A0
:1000A000E7010008E7010008E7010008E701000890
:1000B000E7010008E7010008E7010008E701000880
:1000C000E7010008E7010008E7010008E701000870
:1000D000E7010008591D0008E7010008E7010008D2
:1000E000E7010008E7010008E7010008E701000850
:1000F000E7010008E7010008E7010008E701000840
:10010000E7010008E7010008E7010008E70100082F
:10011000E7010008E7010008E7010008E70100081F
:10012000E7010008E7010008E7010008E70100080F
:1001300000F002F800F03AF80AA090E8000C8244BF
:100140008344AAF10107DA4501D100F02FF8AFF29C
:10015000090EBAE80F0013F0010F18BFFB1A43F0A5
:1001600001031847BC340000DC340000103A24BFFF
:1001700078C878C1FAD8520724BF30C830C144BF0C
:1001800004680C607047000000230024002500264E
:10019000103A28BF78C1FBD8520728BF30C148BFEA
:1001A0000B6070471FB51FBD10B510BD00F058F8AB
:1001B0001146FFF7F7FF01F019FE00F076F803B4DF
:1001C000FFF7F2FF03BC00F07BF80000094880470E
:1001D00009480047FEE7FEE7FEE7FEE7FEE7FEE729
:1001E000FEE7FEE7FEE7FEE704480549054A064B41
:1001F00070470000031A000831010008A80700201A
:10020000A80D0020A8090020A80900204FF0000236
:1002100000B5134694469646203922BFA0E80C50FC
:10022000A0E80C50B1F12001BFF4F7AF090728BFD7
:10023000A0E80C5048BF0CC05DF804EB890028BF53
:1002400040F8042B08BF704748BF20F8022B11F07C
:10025000804F18BF00F8012B7047704770477047F8
:10026000754600F029F8AE4605006946534620F071
:100270000700854618B020B5FFF7B6FFBDE820405F
:100280004FF000064FF000074FF000084FF0000B52
:1002900021F00701AC46ACE8C009ACE8C009ACE805
:1002A000C009ACE8C0098D4670470446AFF3008032
:1002B0002046FFF784FF00000048704744070020F5
:1002C00001491820ABBEFEE7260002007047FEE79A
:1002D000014800F0D7B800000003002030B590F8C6
:1002E00040500124AC40C56B6C6004686360436897
:1002F000102B036803D099600068C26030BD9A601B
:100300000068C16030BD704772B6FEE710B590F866
:1003100021100022022905D00421816380F82020C9
:10032000012010BD01680B6823F00E030B6001680B
:100330000B6823F001030B6090F84030C46B01217F
:1003400001FA03F3636080F8211080F82020104642
:1003500010BD00002DE9F05F90F821100024022963
:1003600003D004218163012485E001680A6822F03A
:100370000E020A6001680A6822F001020A603F4E1C
:100380003E4FB215DFF8F4C0DFF8F090DFF8ECA0D4
:10039000DFF8E8B0DFF8E4E00168783F1301150208
:1003A000ACF1640CA9F15009AAF13C0AABF1280B9D
:1003B000AEF1140E4FF48018B14227D9B9420ED0D5
:1003C000614512D049451DD0514518D0594518D026
:1003D000714501D1424615E0294EB14201D10122B9
:1003E00010E0274E1436B14201D110220AE0244E0B
:1003F0002836B14206D0224A3C32914201D11A46F7
:1004000000E02A461E49091F0A602BE0B94213D0BA
:10041000614517D0494522D051451DD059451DD0C1
:10042000714501D142461AE0B14202D14FF08072CB
:1004300015E0134EB14201D1012210E0104E1436E6
:10044000B14201D110220AE00D4E2836B14206D049
:100450000B4A3C32914201D11A4600E02A46074934
:1004600080394A60012180F82110002180F8201095
:10047000416B01B188472046BDE8F09F80000240F3
:10048000080402402DE9F05FC16B0A6801680B683F
:10049000046C4FF0040808FA04F8844D844E854F2C
:1004A000DFF814C2DFF81492DFF814A2DFF814B2F8
:1004B000DFF814E218EA020F65D05FEA437862D5EC
:1004C0000A68920603D40A6822F004020A60DFF880
:1004D000F0814FF48062016808F1140813011402DE
:1004E000414524D9A9420DD0B1420FD0B9421AD00A
:1004F000614515D0494515D0514501D1120312E08F
:10050000594501D104220EE0714501D140220AE093
:100510006D4D1435A94206D06B4A2832914201D163
:100520001A4600E022466749091F0A6029E0A942ED
:1005300013D0B14215D0B94220D061451BD04945F6
:100540001BD0514502D14FF4800217E0414502D142
:100550004FF0806212E0594501D104220EE071454E
:1005600001D140220AE0584D1435A94206D0564A1E
:100570002832914201D11A4600E022464B490839FF
:100580004A60C16A71E04FF0020808FA04F818EAFC
:10059000020F70D05FEA83786DD50A68920606D4A0
:1005A0000A6822F00A020A60012180F82110DFF8AF
:1005B00010814FF40072016808F11408130114024D
:1005C000414524D9A9420DD0B1420FD0B9421AD029
:1005D000614515D0494515D0514501D1120312E0AE
:1005E000594501D102220EE0714501D120220AE0D5
:1005F000354D1435A94206D0334A2832914201D1F3
:100600001A4600E022462F49091F0A6029E0A94244
:1006100013D0B14215D0B94220D061451BD0494515
:100620001BD0514502D14FF4001217E0414502D1D1
:100630004FF0007212E0594501D102220EE07145DF
:1006400001D120220AE0204D1435A94206D01E4ACD
:100650002832914201D11A4600E022461349083956
:100660004A60002180F82010816A00291CD0BDE872
:10067000F05F0847FFE70825A540154214D01A0788
:1006800012D50A6822F00E020A6090F84020C36B6F
:10069000012101FA02F25A60816380F821100021E1
:1006A00080F82010016BE0E7BDE8F09F08000240F1
:1006B0001C0002403000024044000240580002404A
:1006C0006C000240080402401C04024030B560B1D6
:1006D0001A4B026814219A4209D2194B1344B3FBF6
:1006E000F1F18900016417490AE0012030BD134B84
:1006F0005B421344B3FBF1F1890001640F490839EF
:10070000C163022180F82110136843F6F0718B4316
:10071000F0E901142143D0E902452C432143046947
:100720002143446921438469214319431160002115
:100730004163012242770177084630BD0804024038
:10074000F8FFFDBF0000024070B5044690F820009D
:10075000002501280CD0012084F8200094F82160A5
:100760000020012E06D084F820000225284670BD06
:10077000022070BD022684F82160A063206806680C
:1007800026F0010606602046FFF7A8FDE06A002873
:100790002068016802D041F00E0106E021F004015A
:1007A00001602068016841F00A0101602068016869
:1007B00041F001010160D9E72DE9F84FDFF8C89158
:1007C000002409F1040A0AF1040B23460F270BF158
:1007D000040ED1E00125A54006EA0502AA4276D121
:1007E000DFF8A8C14E68A6EB0C0866452BD00DDCDF
:1007F000032E34D005DC36B3012E19D0022E2FD1B2
:100800001BE0112E16D0122E2AD119E0B8F5881F40
:1008100019D006DCB8F5803F15D0B8F5801F1FD180
:1008200011E0B8F5001F0ED0B8F5041F18D10AE08A
:10083000CB6815E0CB681B1D12E0CB6808330FE0D6
:10084000CB680C330CE08B682BB1012B4FF0080305
:1008500003D0456104E0042302E0056100E00023C9
:10086000FF2A01D8064601E000F104064FEA84059C
:1008700001D9A5F12005D6F8008007FA05FC28EA81
:100880000C0803FA05F548EA0508C6F800804D682B
:10089000ED0070D53E4DAE6946F00106AE61AD6922
:1008A00024F0030605F0010500953A4D06EB050C12
:1008B000DCF80850A607360F07FA06F825EA0805FF
:1008C000DFF8D480404503D14FF0000825E052E026
:1008D000DFF8C880404502D14FF001081DE0DFF885
:1008E000C080404502D14FF0020816E0DFF8B48026
:1008F000404502D14FF003080FE0DFF8AC804045DF
:1009000002D14FF0040808E0DFF8A080404502D192
:100910004FF0050801E04FF0060808FA06F848EA2B
:100920000508CCF808804D68D9F80060ED034D4605
:1009300001D5164300E096432E604D68DAF800605A
:10094000AD03554601D5164300E096432E604D6831
:10095000DBF80060ED025D4601D5164300E09643EA
:100960002E604D68DEF80060AD02754601D5164375
:1009700000E096432E60641C0A681646E2407FF44D
:1009800029AFBDE8F88F00000004014000001110FD
:10099000001002400000014000080140000C01402E
:1009A000001001400014014000180140001C0140EB
:1009B0000AB1016170470904FBE700000148806843
:1009C000704700000400002002488168027811444A
:1009D0008160704704000020074810B5016841F0AD
:1009E00010010160032000F075F80F2000F006F8F8
:1009F00000F024F8002010BD0020024070B50D4D1D
:100A000004464FF47A712878B1FBF0F00A4909687E
:100A1000B1FBF0F000F0F8FA48B9102C07D2002230
:100A20002146501E00F036F800206C6070BD012099
:100A300070BD000004000020100000200C4808B524
:100A4000816941F001018161816901F00101009139
:100A5000C16941F08051C161C06900F080500090CF
:100A60000448416821F0E06141F00071416008BD37
:100A70000010024000000140002809DB00F01F02C6
:100A8000012191404009800000F1E020C0F80011F0
:100A900070470000F0B40E4B1B680C46C3F30223F2
:100AA000C3F10705042D00D90425191D072901D21A
:100AB000002300E0DB1E012606FA05F1491E214055
:100AC00099409E40761E16403143F0BC01F04BB970
:100AD0000CED00E0064900F0070208684FF6FF033E
:100AE000184040EA0220034A1043086070470000A3
:100AF0000CED00E00000FA052DE9F0470F46050077
:100B000061D0434E306800F00700B84209D2306827
:100B100020F0070038433060306800F00700B8422A
:100B200051D128683B4C810712D5400703D5606836
:100B300040F4E06060602878000703D5606840F406
:100B4000605060606068A96820F0F0000843606051
:100B50002878C00728D06868012810D021680228AA
:100B600010D0890700292EDA616821F003010143C2
:100B70006160FFF723FF804641F288390DE021686C
:100B80008903EFE78901EDE7FFF718FFA0EB080104
:100B9000494502D90320BDE8F0876068696800F024
:100BA0000C00B0EB810FEFD1306800F00700B842C5
:100BB0000BD9306820F0070038433060306800F00F
:100BC0000700B84201D00120E5E72878400705D5A5
:100BD0006068E96820F4E0600843606028780007F6
:100BE00006D56068296920F4605040EAC100606061
:100BF00000F038F86168084AC1F30311515CC8403D
:100C00000649086006480068FFF7F8FE0020C2E7C2
:100C100000200240001002400836000810000020AA
:100C2000080000200448054900684968044AC1F3E7
:100C30000221515CC84070471000002000100240A3
:100C4000183600080448054900684968044AC1F399
:100C5000C221515CC84070471000002000100240C3
:100C60001836000812A185B00FC98DE80F0014A036
:100C7000144A006804905168134801F00C03042BD7
:100C800010D0082B0ED1C1F38343C9031DF8030014
:100C90000AD5516804AAC1F34041515C0A4A504345
:100CA000B0FBF1F005B0704708494843FAE700008F
:100CB00002030405060708090A0B0C0D0E0F10109D
:100CC000010200000010024000127A0000093D00FD
:100CD0002DE9F84F040070D02078C04DC00749D0EE
:100CE0006868C0F38100012807D06868C0F38100FC
:100CF000022809D16868C00306D52868800339D561
:100D000060680028E7D035E06068B0F5803F0BD020
:100D100010B1B0F5A02F11D0286820F480302860E1
:100D2000286820F4802002E0286840F480302860A1
:100D3000606890B1FFF742FE06460AE0286840F47A
:100D400080202860F0E700BFFFF738FE801B642892
:100D500073D828688003F7D50CE0FFF72FFE06460E
:100D600005E000BFFFF72AFE801B6428F0D8286842
:100D70008003F7D420789A4E80074FF001094FF096
:100D8000000839D5686810F00C0F07D06868C0F308
:100D90008100022809D16868C00306D4286880074A
:100DA00014D52069012808D110E02069B0B1C6F837
:100DB0000090FFF703FE074605E00AE1FFF7FEFD9E
:100DC000C01B0228C4D828688007F7D52868616945
:100DD00020F0F80040EAC10028600DE0C6F800806D
:100DE000FFF7ECFD074604E0FFF7E8FDC01B022813
:100DF00023D828688007F7D4207800072CD57948B5
:100E0000A169D9B1C0F80090FFF7D8FD074604E00A
:100E1000FFF7D4FDC01B02280FD8686A8007F7D5FA
:100E200071484FF4FA510068B0FBF1F0009000BF38
:100E30000098411E0091FAD20EE080E0C0F80080D8
:100E4000FFF7BCFD074604E0FFF7B8FDC01B022812
:100E500075D8686A8007F7D42078400760D5E869BC
:100E60000027C00008D4E86940F08050E861E869D4
:100E7000012700F0805000905C480168C90513D438
:100E80000168834641F480710160FFF797FD824657
:100E900006E000BFFFF792FDA0EB0A0064284ED8E1
:100EA000DBF80000C005F5D5E06801280AD008B1DC
:100EB000052813D0286A20F001002862286A20F053
:100EC000040002E0286A40F001002862E06841F274
:100ED000883B98B1FFF772FD82460BE0286A40F02C
:100EE00004002862EEE700BFFFF768FDA0EB0A01EF
:100EF00059455AD8286A8007F6D50CE0FFF75EFD01
:100F0000824605E0FFF75AFDA0EB0A0159454CD88F
:100F1000286A8007F6D41FB1E86920F08050E861A4
:100F2000E06988B36968C1F38101022944D00228CD
:100F3000C6F8608004D0FFF741FD044638E034E095
:100F4000FFF73CFD074604E0FFF738FDC01B022811
:100F50002BD828688001F7D4206AB0F5803F05D1EE
:100F60006868A16820F4003008436860D4E908018B
:100F70000843696821F4741108436860C6F86090FA
:100F8000FFF71CFD044606E025E000BFFFF716FD55
:100F9000001B022809D828688001F7D51BE000BF94
:100FA000FFF70CFD001B022802D90320BDE8F88FD3
:100FB00028688001F4D40EE00128F7D06868226A1E
:100FC00000F48031914204D1616A00F470108842CB
:100FD00001D00120EAE70020E8E70000001002400D
:100FE0000000424280044242100000200070004095
:100FF0004FF0E0210428086903D020F004000861C4
:10100000704740F00400FAE710B5401EB0F1807F51
:1010100001D3012010BD4FF0E02460610F21601763
:1010200000F0A1FE0020A06107202061002010BD7B
:1010300070477047F8B5026804461068D168536974
:1010400010F00F0F4FF0000554D003F0010601F42B
:10105000907737435FD0C20705D0CA0503D5226C0D
:1010600042F001022264420705D5DA0703D0226C60
:1010700042F002022264820705D5DA0703D0226C0F
:1010800042F004022264020707D501F02002324335
:1010900003D0226C42F008022264226C002A35D070
:1010A000800604D5880602D5204600F033FD20686E
:1010B0004069216CC0F3801001F008010143204613
:1010C00025D000F006FD2068416949061BD541691D
:1010D00021F040014161A06BA8B158494163A06B68
:1010E000FFF738F9002811D0A06B416B01B0BDE8C3
:1010F000F040084783060ED58B060CD52046BDE888
:10110000F84000F007BD2046FFF793FFF8BDFFF75A
:1011100090FF2564F8BD266B2023012E52D1C60610
:1011200050D5CE064ED510685068009050694006E4
:101130002AD5A16B086840680004000CEAD0A68D8F
:101140008642E7D9E0858869202818D0D06820F445
:101150008070D0602068416921F001014161206800
:10116000416921F04001416184F83E3025632068E7
:10117000C16821F01001C160A06BFFF7C7F8A08D16
:10118000E18D401A81B219E0A08DE18D401A81B243
:10119000E08D0028BED00029BCD0D06820F490702B
:1011A000D0602068426922F00102426184F83E303A
:1011B00025632068C26822F01002C2602046FFF753
:1011C00037FFF8BD05062BD50D0629D594F83D004F
:1011D0002128F6D1A068B0F5805F01D12069B0B1B7
:1011E000206A411C2162216800784860E08C401E22
:1011F0000004000CE084E4D12068C16821F0800183
:10120000C1602068C16841F04001C160F8BD206A3A
:101210000088C0F308005060206A801C2062E5E767
:101220004006F3D54806F1D5D168204621F04001AB
:10123000D16084F83D3000F01EF9F8BD051A0008B1
:1012400070B5040004D094F83D00002510B106E00C
:10125000012070BD84F83C50204600F023F8242083
:1012600084F83D002068C16821F40051C160204627
:1012700000F0ACFC2068016921F490410161206814
:10128000416921F02A0141612068C16841F400519F
:10129000C1602564202084F83D0084F83E000020D1
:1012A00070BD000070B586B000250646009501951A
:1012B000029503950068224988423FD121498869F7
:1012C00040F480408861886900F480400490886917
:1012D00040F00400886188691B4C00F00400049011
:1012E0004815009002200190032003906946204693
:1012F000FFF762FA2015CDE9000569462046029500
:10130000FFF75AFA124C1148C4E900058020C4E9DD
:10131000025020202561C4E905502046E561FFF711
:10132000D5F908B1FEF7F0FFB4630022114625207D
:101330006662FFF7AFFB2520FFF79EFB06B070BD8E
:1013400000380140001002400008014058000240EF
:101350000003002090F83E30202B0ED159B152B13D
:1013600090F83C30012B08D0012380F83C3000235A
:10137000036300F087BC0120704702207047000023
:101380003EB5044601210D48CDE900013F23692205
:101390000021152000F070FA3F236922002115205A
:1013A00000F0BEF931208DF808004FF6FF730122DE
:1013B00002A9204600F006F83EBD000014000020FF
:1013C000704700002DE9F843044690F83D001F46A1
:1013D00016460D4620284CD1C5B1BEB194F83C004C
:1013E000012846D0012084F83C004FF00008C4F8E2
:1013F0004080212084F83D00FFF7E0FAA684814672
:10140000E684A068B0F5805F03D004E00120BDE869
:10141000F883206928B12E465FF0000584F83C80EF
:101420000EE00026FAE78021204600F063FCA0B918
:10143000AEB116F8010B21684860E08C401EE084D4
:10144000E08C4B464FF0000200970028EBD14FF0A4
:101450004001204600F04EFC30B10320D7E735F8BC
:10146000020BC0F30800E6E7202084F83D000020CE
:10147000CDE70220CBE77047FEE70000094808B53A
:10148000416941F0010141614069002200F0010021
:10149000009011460F20FFF7FDFABDE808400F202D
:1014A000FFF7EABA001002402DE9F04186B00020B3
:1014B00000900190029003902D48816941F0100145
:1014C0008161816901F010010491816941F0040199
:1014D0008161816901F004010491816941F0200179
:1014E0008161816901F020010491816941F4807179
:1014F000816180691F4E00F4807004900022FF21FA
:101500003046FFF755FA1C4F012248213846FFF7B5
:101510004FFADFF8688001224FF4C0414046FFF7E0
:1015200047FA00224FF400414046FFF741FA0124F8
:10153000FF20CDE90004032569463046CDE9024588
:10154000FFF73AF94820CDE9000469463846CDE96D
:101550000245FFF731F94FF46040CDE900046946D8
:101560004046CDE90245FFF727F906B0BDE8F08116
:101570000010024000100140001401400020014012
:101580000C4810B50A4901604FF4E1314160002177
:1015900081600C22C160C0E904128161C161FFF762
:1015A0004FFE002803D0BDE81040FEF7ADBE10BDD1
:1015B00000380140BC020020FEE7FEE710B4002125
:1015C000084B0A465FF0000003EBC004401CC0B2A9
:1015D00062548028F8D3491CC9B20829F2D310BC40
:1015E00000F0CCB84403002010B57F2816D83F295E
:1015F00014D80723A3EBD10301F00701C1F10704BD
:101600000121A140064CDBB204EBC000002AC25C01
:10161000C9B201D00A4300E08A43C25410BD0000A1
:101620004403002070B53C480124C0F89841C0F83C
:101630008C413A4D0020C5F8BC01642005F5DE75EB
:1016400000F0ACFB2C600021AE2000F089F90021F5
:10165000D52000F085F90021502000F081F900210B
:10166000A82000F07DF900213F2000F079F9002149
:10167000D32000F075F90021084600F071F900212F
:10168000402000F06DF900218D2000F069F9002163
:10169000142000F065F90021202000F061F90021FC
:1016A000022000F05DF90021A12000F059F900218D
:1016B000C02000F055F90021DA2000F051F9002196
:1016C000122000F04DF90021812000F049F900219D
:1016D000EF2000F045F90021D92000F041F9002168
:1016E000F12000F03DF90021DB2000F039F9002164
:1016F000302000F035F90021A42000F031F900215C
:10170000A62000F02DF90021AF2000F029F9BDE856
:101710007040FFF753BF00000080224200002442C7
:101720002DE9F047064600241020904600EB1617DE
:1017300006F00F0A04F1B000C0B2002100F010F969
:101740000021504600F00CF93846002100F008F95D
:101750003546DFF8249007E009EBC5000121005D64
:1017600000F0FEF86D1CEDB24545F5D9641CE4B2FD
:10177000082CDFD3BDE8F0874403002070B5114E7C
:10178000002400BF04F1B000C0B2002100F0E8F86E
:101790000021084600F0E4F80021102000F0E0F8F5
:1017A0005FF0000506EBC5000121005D00F0D8F8F0
:1017B0006D1CEDB2802DF5D3641CE4B2082CE1D38E
:1017C00070BD0000440300202DE9FF4F1D460C466C
:1017D0008946580700D0012000EBD500690848432E
:1017E000203A00F0FF0A02F0FF0B002639E00C2D32
:1017F0000FD0102D11D0182D35D11C490BEBCB007B
:1018000001EB80004FF00008875D380609D50D9A7E
:101810000AE00BEB4B001649F2E7164901EB0B10FF
:10182000F0E70D9890B1002221460098FFF7DCFE0A
:101830007806641C070EE4B2A4EB0900A84207D1A5
:1018400000984C46401CC0B2009008E00122EBE733
:1018500008F1010000F0FF08B8F1080FD5D3761C9D
:10186000F6B25645C3D3BDE8FF8F0000AC28000890
:10187000481E0008BC2200082DE9F04F9246DDE921
:1018800009E6814604460125DFF878B036E00A46CD
:1018900030E0581A571AA4EB090C401C0CFB0077D7
:1018A000704205EB400078434FEAE77C07EB5C7C35
:1018B0004FEAE0780EEBEC0700EB587828F00708C9
:1018C0003F78C6EBC60CA0EB08006044C740F807A1
:1018D0000BEBC40000EBD20002F0070C077805FA0E
:1018E0000CF802D047EA080701E027EA0807521C73
:1018F0000770D2B29A42CCD9641CE4B25445C6D91E
:10190000BDE8F08F440300202DE9F84704461F4648
:10191000802016460D46A0EB5709C3F140084FF052
:10192000010A16E0A14502D20024E819C5B2A84573
:1019300003DA00242546FFF741FECDF800A03278F7
:101940003B4629462046FFF73FFF04EB5700C4B251
:10195000761C307820385E28E4D9BDE8F88700008E
:101960000B4AD36803F47F430343D3600948C0F8AC
:101970008C110021C0F89811074AC2F8B811012152
:10198000C2F8B811C0F89811C0F88C117047000067
:10199000001001400080224200002442704770473E
:1019A000FFF712B830B58FB028216846FEF72EFC3D
:1019B00014210AA8FEF72AFC01210804CDE9001031
:1019C0000024029402250491CDE907504FF4E01061
:1019D00009906846FFF77CF908B172B6FEE70F2060
:1019E000CDE90A054FF48060CDE90C4002210AA838
:1019F0000E94FFF781F8002801D072B6FEE70FB011
:101A000030BD704710B5406A0021C185C184FFF721
:101A100010FB10BD70B5446A2068406994F83D1011
:101A2000C0F3C0100025212904D118B1E584204657
:101A300000F067F82068406994F83E10C0F3801009
:101A4000222904D118B1E585204600F042F8206C27
:101A500040F0100020642046FFF7EBFA70BD10B58F
:101A60000146406A0968096889061BD40021C185BE
:101A70000168CA6822F48072CA6001684A6922F06B
:101A800001024A6101684A6922F040024A6120214C
:101A900080F83E10016B012904D10168CA6822F068
:101AA0001002CA60016B012902D0FFF769FC10BD6A
:101AB000818DFFF7BDFA10BD10B5406A016B012999
:101AC00002D0FFF77DFC10BD818D4908FFF7B0FA09
:101AD00010BD0168CA6822F49072CA6001684A6940
:101AE00022F001024A61016B012904D10168CA6830
:101AF00022F01002CA60202180F83E10002101630C
:101B000070470168CA6822F0C002CA60202180F8CC
:101B10003D10704708B590F83E10222901D00220F0
:101B200008BD82684FF480539A4201D1016921B106
:101B3000816A9A421BD04AB10AE00268816A5268FF
:101B4000C2F308020A80816A891C08E0026972B146
:101B50000268526802F07F020A70816A491C816241
:101B6000C18D491E0904090CC18503D019E0026822
:101B70005268F1E70168CA6822F02002CA60016871
:101B8000CA6822F48072CA6001684A6922F00102C0
:101B90004A61202180F83E10016B012903D0FFF734
:101BA000EFFB002008BD002101630168CA6822F034
:101BB0001002CA6001680A68D20602D50A6849683C
:101BC0000091818DFFF734FAEBE7000070B5044611
:101BD00000680169E26821F4405111430161216903
:101BE000A0680843616908432168CA6841F20C6330
:101BF0009A430243CA6020684169A26921F4407196
:101C0000114341611E492068884202D1FFF71AF84A
:101C100001E0FFF707F800EBC00101EB001260687C
:101C200064218000B2FBF0F3B3FBF1F36FF0180610
:101C30007343B2FBF0F5B2FBF0F605EB83053223FC
:101C400003EB0515B5FBF1F5B6FBF1F605F0F00574
:101C500005EB0615B2FBF0F6B2FBF0F0B0FBF1F0CD
:101C60006FF01802504306EB800003EB0010B0FB4E
:101C7000F1F0216800F00F002844886070BD00007A
:101C80000038014038B5816282850025134604463C
:101C90000564222084F83E00A26B13489062A26B78
:101CA0001248D062A26B12481063A06B0A464563CB
:101CB0002168A06B091DFEF747FD20680168416897
:101CC000009184F83C50C16841F48071C160206883
:101CD000416941F0010141612068416941F04001E1
:101CE0004161002038BD00005F1A0008B91A0008E1
:101CF000151A00082DE9F041984617460E4604468D
:101D0000069D1DE0681C1BD02DB1FEF757FEA0EB11
:101D10000800A84214D92068C16821F4D071C160BC
:101D20002068416921F001014161202084F83D00D3
:101D300084F83E00002084F83C000320BDE8F081D8
:101D40002068006836EA000004D00020B842D9D0EC
:101D50000020F3E70120F9E70148FFF76BB9000025
:101D6000BC020020FEE70907090E002804DB00F191
:101D7000E02080F80014704700F00F0000F1E02030
:101D800080F8141D7047000010B504460420FFF7CA
:101D90002FF90148046010BD0000002070B5054611
:101DA00000244FF47A7603E0304600F005F8641C16
:101DB000AC42F9D370BD000070B54FF0E0240022B2
:101DC00065690949A36909684843A1699942FCD03A
:101DD00002D2A3EB010302E0A5EB010633441A444F
:101DE0000B468242F1D370BD00000020FEF7F4FDE7
:101DF000FFF7D8FDFFF758FBFFF740FBFFF7C0FBED
:101E00004820FFF7C1FFFFF70DFC0021182309A2AE
:101E10000846FFF779FDFFF7B1FC41F28830FFF784
:101E2000BDFFFFF7CBFB4FF42A7205490548FFF7CA
:101E300091FAFEE744696D4D6F6F6E35000000004A
:101E400014000020BC020020000000000000000080
:101E500000000000000000003F4000000000000003
:101E600000003000400030004000000009000BC0BE
:101E70003D000BC03D00090018C024407FE0224017
:101E800031800000180024C01B000D80324001800A
:101E900003801C4027401C80074000401000600069
:101EA00000000000000000000000000000001F8093
:101EB000204040200000402020401F800000000003
:101EC000090006001F80060009000000040004004D
:101ED0003F800400040000000010006000000000CB
:101EE00000000000040004000400040004000000DE
:101EF000000000400000000000000000002001C0C1
:101F000006003800400000001F8020402040204094
:101F10001F800000000010403FC000400000000093
:101F200018C021402240244018400000108020406A
:101F3000244024401B80000002000D0011003FC01F
:101F4000014000003C8024402440244023800000C5
:101F50001F802440244034400380000030002000D3
:101F600027C03800200000001B802440244024406B
:101F70001B8000001C0022C0224022401F80000065
:101F80000000000008400000000000000000000009
:101F90000460000000000000000004000A001100BE
:101FA00020804040090009000900090009000000E4
:101FB00000004040208011000A00040018002000AA
:101FC00023402400180000001F80204027402940A3
:101FD0001F400000004007C039000F0001C0004052
:101FE00020403FC0244024401B8000001F80204030
:101FF000204020403080000020403FC02040204052
:102000001F80000020403FC024402E4030C0000010
:1020100020403FC024402E00300000000F00108000
:10202000204022403380020020403FC004000400D2
:102030003FC02040204020403FC0204020400000C2
:102040000060202020203FC02000200020403FC012
:1020500024400B0030C0204020403FC020400040C2
:10206000004000C03FC03C0003C03C003FC0000037
:1020700020403FC00C4023003FC020001F80204074
:10208000204020401F80000020403FC0244024000A
:10209000180000001F802140214020E01FA0000008
:1020A00020403FC02440260019C0004018C02440F2
:1020B0002440224031800000300020403FC02040BA
:1020C0003000000020003F80004000403F802000A2
:1020D00020003E0001C0070038002000380007C083
:1020E0003C0007C038000000204039C0060039C05D
:1020F000204000002000384007C038402000000089
:10210000304021C02640384020C0000000000000C0
:102110007FE0402040200000000070000C000380A1
:10212000004000000000402040207FE00000000050
:1021300000002000400020000000000000100010FF
:10214000001000100010001000000000400000000F
:1021500000000000000002800540054003C0004070
:1021600020003FC0044004400380000000000380C2
:102170000440044006400000000003800440244066
:102180003FC00040000003800540054003400000C0
:10219000000004401FC0244024402000000002E052
:1021A000055005500650042020403FC00440040064
:1021B00003C000400000044027C0004000000000B1
:1021C00000100010041027E00000000020403FC075
:1021D0000140070004C00440204020403FC00040B0
:1021E0000040000007C0040007C0040003C0000056
:1021F000044007C00440040003C000400000038006
:102200000440044003800000041007F00450044020
:1022100003800000000003800440045007F0001019
:10222000044007C002400400040000000000064013
:102230000540054004C00000000004001F80044069
:1022400000400000040007800040044007C0004038
:102250000400070004C0018006000400060001C05D
:10226000070001C006000000044006C0010006C0CF
:10227000044000000410071004E001800600040080
:102280000000044005C006400440000000000000BB
:1022900004007BE040200000000000000000FFF090
:1022A00000000000000040207BE00400000000006F
:1022B000400080004000200020004000000000009E
:1022C000000000000000000000000000000000000E
:1022D00000001FCC000C00000000000000000800FF
:1022E000300060000800300060000000022003FCA5
:1022F0001E20022003FC1E200220000000000E18F9
:1023000011043FFF10840C78000000000F001084BF
:102310000F3800C0077818840078000000780F8418
:1023200010C411240E9800E400840008080068001E
:10233000700000000000000000000000000000002D
:10234000000007E0181820044002000000004002CE
:102350002004181807E000000000000002400240BE
:1023600001800FF0018002400240000000800080E8
:1023700000800FF800800080008000000001000D48
:10238000000E0000000000000000000000000080BF
:102390000080008000800080008000800000000C31
:1023A000000C00000000000000000000000000061B
:1023B000001800600180060018002000000007F0EF
:1023C000080810041004080807F0000000000804C2
:1023D00008041FFC000400040000000000000E0CB4
:1023E00010141024104411840E0C000000000C186E
:1023F00010041104110412880C700000000000E0A9
:102400000320042408241FFC0024000000001F985F
:10241000108411041104108810700000000007F0EF
:1024200008881104110418880070000000001C00C6
:10243000100010FC13001C001000000000000E38FB
:1024400011441084108411440E380000000007006D
:10245000088C10441044088807F0000000000000B9
:102460000000030C030C000000000000000000004E
:1024700000010106000000000000000000000080D4
:10248000014002200410080810040000022002206D
:10249000022002200220022002200000000010047E
:1024A00008080410022001400080000000000E0017
:1024B0001200100C106C10800F00000003E00C18CC
:1024C00013E4142417C4082807D000000004003CBB
:1024D00003C41C40074000E4001C000410041FFC5F
:1024E0001104110411040E880070000003E00C18A0
:1024F00010041004100410081C10000010041FFC2D
:10250000100410041004080807F0000010041FFC59
:102510001104110417C410040818000010041FFC53
:102520001104110017C010000800000003E00C188F
:102530001004100410441C780040000010041FFC1C
:1025400010840080008010841FFC10040000100420
:1025500010041FFC10041004000000000003000120
:10256000100110011FFE10001000000010041FFCDD
:10257000110403801464181C1004000010041FFCD4
:102580001004000400040004000C000010041FFCF0
:102590001F0000FC1F001FFC1004000010041FFCA3
:1025A0000C04030000E010181FFC100007F00808DE
:1025B000100410041004080807F0000010041FFCA9
:1025C00010841080108010800F00000007F00818A1
:1025D00010241024101C080A07F2000010041FFC2D
:1025E0001104110011C011300E0C000400000E1C6B
:1025F00011041084108410441C38000018001000CE
:1026000010041FFC100410001800000010001FF838
:1026100010040004000410041FF8100010001E0035
:1026200011E0001C007013801C0010001FC0103C43
:1026300000E01F0000E0103C1FC000001004180C58
:10264000163401C001C01634180C100410001C0010
:10265000130400FC13041C00100000000804101CEC
:102660001064108413041C04101800000000000003
:1026700000007FFE400240024002000000003000E7
:102680000C0003800060001C0003000000004002FA
:10269000400240027FFE0000000000000000000039
:1026A0002000400040004000200000000001000128
:1026B00000010001000100010001000100004000D4
:1026C0004000200000000000000000000000009812
:1026D000012401440144014400FC000410001FFCDB
:1026E00000880104010400880070000000000070F0
:1026F000008801040104010400880000000000704B
:1027000000880104010411081FFC0004000000F807
:10271000014401440144014400C8000000000104D8
:1027200001040FFC1104110411001800000000D670
:1027300001290129012901C90106000010041FFC1B
:10274000008401000100010400FC000400000104F9
:10275000190419FC0004000400000000000000033C
:1027600000010101190119FE0000000010041FFC06
:102770000024004001B4010C01040000000010041A
:1027800010041FFC0004000400000000010401FC10
:102790000104010001FC0104010000FC010401FC32
:1027A000008401000100010400FC0004000000F8A6
:1027B000010401040104010400F80000010101FF0B
:1027C0000085010401040088007000000000007012
:1027D000008801040104010501FF00010104010456
:1027E00001FC00840104010001800000000000CC15
:1027F00001240124012401240198000000000100AB
:10280000010007F80104010400000000010001F8C4
:10281000000400040004010801FC00040100018020
:102820000170000C001001600180010001F0010C3A
:10283000003001C00030010C01F001000000010473
:10284000018C00740170018C010400000101018100
:102850000171000E00180160018001000000018478
:10286000010C013401440184010C0000000000004F
:102870000000000001003EFC400240020000000099
:1028800000000000FFFF0000000000000000400208
:1028900040023EFC0100000000000000000060005B
:1028A0008000800040004000200020000000000068
:1028B0000000000000000000000000000000000018
:1028C0000000000000000000000000000000000008
:1028D0000000000000000000000000000000000FE9
:1028E00080380FFE380F8038000000000000000024
:1028F00000000000000000000000010000060000D1
:102900000C00003800003100000600000C00003808
:10291000000030000000000000000000618000673F
:10292000F807F980006180006180006180006180AB
:102930000067F807F98000618000000000000000D7
:10294000000001C0E003E0F00630080418081FFF93
:10295000FE040E080787F00381E00000000000007D
:1029600001F000060C00040408060C7001F9C00018
:102970000E00003BE000EC18070808040C180003E8
:10298000E00000000001E00007F003F818041C0854
:1029900004170807E1D003C0E00023B0003C0800A2
:1029A00020080000100000000000000100003100BD
:1029B000003200001C0000000000000000000000C9
:1029C0000000000000000000000000000000000007
:1029D0000000000000000000000000007F0001FF78
:1029E000C00780F00C001810000420000200000056
:1029F0000000002000021000040C00180780F00105
:102A0000FFC0007F00000000000000000000000088
:102A100000000000000000004200006600006600A8
:102A2000003C0000180003FFC0001800003C00003C
:102A30006600006600004200000000000800000878
:102A40000000080000080000080001FFC0000800A6
:102A50000008000008000008000008000000000056
:102A6000000100003100003200001C0000000000E6
:102A70000000000000000000000000000000000056
:102A80000000000008000008000008000008000026
:102A90000800000800000800000800000800000806
:102AA00000000000000000000000000038000038B6
:102AB00000003800000000000000000000000000DE
:102AC0000000000000000000000000000006000000
:102AD0001C000070000180000E0000380000C000E3
:102AE0000700001C00003000000000000000000093
:102AF0007F8001FFE00380700600180400080400D6
:102B00000806001803807001FFE0007F80000000CD
:102B10000000000000000100080100080100080397
:102B2000FFF807FFF8000008000008000008000098
:102B30000000000000000001C03802C058040098E6
:102B4000040118040218040418061C1803F81801DC
:102B5000E0F800000000000000000001C0E003C039
:102B6000F004000804080804080806180803F4180C
:102B700001E7F00001E0000000000000000000009C
:102B80000300000D00001100006100008108030136
:102B90000807FFF80FFFF800010800010800000017
:102BA0000000000000E007FCD00608080610080638
:102BB0001008061008061838060FF00607C00000B7
:102BC00000000000000000003F8001FFE0038430AF
:102BD000020818041008041008041008071810034D
:102BE0000FF00007C000000000000000000003C05C
:102BF000000700000600000600F80607F8061800A7
:102C000006E00007000006000000000000000001D0
:102C1000E1E003F7F0063410041808041808040C67
:102C200008040C0806161803F3F001C1E0000000C8
:102C300000000000F80003FC30030638040208041A
:102C400002080402080404100308F001FFC0007F1A
:102C50000000000000000000000000000000000074
:102C6000000000007038007038007038000000006C
:102C70000000000000000000000000000000000054
:102C80000000000000000000301A00301C000000AE
:102C90000000000000000000000000000000000034
:102CA0000000000800001400002200004100008025
:102CB000800100400200200400100800080000000D
:102CC0000000000021000021000021000021000080
:102CD000210000210000210000210000210000212E
:102CE00000000000000000000000080008040010C0
:102CF000020020010040008080004100002200000E
:102D0000140000080000000000000003C00004C020
:102D100000040000080038080F38080838081000C0
:102D20000C300007E00003C00000000000000000BD
:102D30003F8000FFE0038070020F1006708804C01F
:102D400088048308047F8802C09003012000FE40AD
:102D50000000080000180001F8003E0801C200074A
:102D6000020007E20000FE00001FC80001F800009A
:102D70003800000804000807FFF807FFF8040808F7
:102D800004080804080804080806180803F41801D1
:102D9000E7F00001E0000000000000003F8001FFBC
:102DA000E003807002001804000804000804000812
:102DB0000400100600200780C0000000040008077F
:102DC000FFF807FFF80400080400080400080400E6
:102DD0001802001003807001FFE0007F80000000F7
:102DE00004000807FFF807FFF804080804080804AF
:102DF0000808040808043E0804000806001801003A
:102E00006000000004000807FFF807FFF804080846
:102E1000040800040800040800043E000600000640
:102E20000000018000000000000000003F8001FF62
:102E3000E003807006001804000804020804020879
:102E40000203F00783F000020000020004000807FC
:102E5000FFF807FFF8040808000800000800000851
:102E60000000080004080807FFF807FFF80400083E
:102E70000000000000000400080400080400080727
:102E8000FFF807FFF8040008040008040008000029
:102E90000000000000000000000600000700000124
:102EA00004000104000104000307FFFE07FFFC0407
:102EB000000004000004000004000807FFF807FFFA
:102EC000F8040C08001800003E0004C7800503C881
:102ED0000600F80400380400180000080400080781
:102EE000FFF807FFF80400080000080000080000D1
:102EF0000800000800000800001800006000000042
:102F000004000807FFF807800807FC00007FC000E6
:102F100003F80007C000780007800807FFF807FFE4
:102F2000F804000804000807FFF807000803C000C1
:102F300000E000003800001E000007000001C0048F
:102F400000F007FFF8040000000000007F8001FF90
:102F5000E00380700600180400080400080600184A
:102F600003003001FFE0007F80000000040008073C
:102F7000FFF807FFF8040408040400040400040434
:102F800000040400060C0003F80001F0000000003B
:102F9000000000007F8001FFE003807006008804CD
:102FA00000880400C806003C03003E01FFE6007FE5
:102FB0008400000004000807FFF807FFF804080871
:102FC000040800040C00040F00040BC00610F003FA
:102FD000F03801E00800000800000001E0F803F00C
:102FE00030063010041808041808040C08040C08F3
:102FF0000206180207F00781E000000001800006C9
:10300000000004000004000004000807FFF807FFA8
:10301000F80400080400000400000600000180001D
:1030200004000007FFE007FFF0040018000008009C
:10303000000800000800000800000804001007FF56
:10304000E004000004000006000007E00007FE00A6
:10305000041FE00001F80000380001E0043E000712
:10306000C00006000004000004000007E00007FFA5
:10307000C0041FF80007C007F80007FF80043FF8EE
:103080000007C004F800070000040000000000046E
:10309000000806001807C07805F1C8003E00001FB0
:1030A000800463E80780F8060018040008000000A8
:1030B00004000006000007800007E008047C080008
:1030C0001FF80007F800180804E0080700000600D1
:1030D000000400000000000100080600380400F8A9
:1030E0000403E8040F08047C0805F00807C008077B
:1030F0000018040060000000000000000000000054
:10310000000000000000003FFFFE2000022000023F
:103110002000022000022000020000000000000049
:10312000000008000007000000C000003800000692
:10313000000001C000003000000E0000010000008F
:1031400000000000000020000220000220000220F9
:1031500000022000023FFFFE00000000000000000F
:103160000000000000000000000000000008000057
:1031700010000030000020000030000010000008A7
:10318000000000000000000000000100000100003D
:103190000100000100000100000100000100000129
:1031A000000001000001000001000001000000001B
:1031B00000000000002000002000001000001000AF
:1031C00000000000000000000000000000000000FF
:1031D0000000000000F00019F8001B180022080091
:1031E0002608002408002410003FF8001FF8000003
:1031F0000800001800000004000007FFF80FFFF0AF
:1032000000181800100800200800200800301800DE
:103210001FF0000FC00000000000000007C0001FEA
:10322000F0001830002008002008002008003C08AA
:10323000001C100000600000000000000000000002
:1032400007C0001FF00038180020080020080020E8
:103250000804101007FFF80FFFF000001000000036
:103260000000000000000007C0001FF00012300046
:103270002218002208002208003208001E10000E4A
:1032800020000000000000002000002008002008AE
:1032900001FFF803FFF806200804200804200807AF
:1032A000200003000000000000000000000E000EDF
:1032B0006E001FF30031B10020B10020B100319148
:1032C000001F13002E1E00200E003000000000041E
:1032D000000807FFF80FFFF800100800200000208A
:1032E00000002008003FF8001FF800000800000060
:1032F0000000000000000020080020080020080650
:103300003FF8063FF8000008000008000008000031
:1033100000000000000000000000000003000003A7
:10332000002001002001002003063FFE063FFC00B4
:10333000000000000000000000000004000807FF7B
:10334000F80FFFF8000188000300002FC00038F8D4
:1033500000203800200800000800000000000000E5
:10336000000004000804000804000807FFF80FFF2D
:10337000F80000080000080000080000000000003D
:10338000002008003FF8003FF8001008002000006F
:103390003FF8003FF8001008002000003FF8003F11
:1033A000F8000008000000002008003FF8003FF887
:1033B000001008001000002000002008003FF80066
:1033C0001FF80000080000000000000007C0000F08
:1033D000F0001830003008002008002008003008F5
:1033E000001830000FF00007C000000000000000CF
:1033F0002001003FFF003FFF0010110020090020C6
:1034000008002008003038001FF0000FC000000046
:103410000000000007C0001FF0003818002008005E
:103420002008002009001011001FFF003FFF0000CE
:1034300001000000002008002008002008003FF8DC
:10344000003FF800080800100800200800200000D5
:103450003000003000000000000000000000000C00
:1034600078001E1800330800230800210800218876
:103470000021980030F000386000000000000000DB
:10348000200000200000200000FFF003FFF80020D3
:1034900008002008002008000030000000000000A4
:1034A000000000002000003FF0007FF8000018003E
:1034B0000008000008002010003FF8007FF0000026
:1034C00010000000000000002000003000003C0060
:1034D000003F800023F0000078000070002380008F
:1034E0003C00003000002000002000003C00003FB5
:1034F000E00023F80000E0002700003E00003FE06D
:103500000021F80001E0003E000020000000000063
:103510002008002008003838003E6800278000039B
:10352000C8002CF8003838002018002008000000DF
:10353000000000002000003003003C01003F830039
:1035400023EC000070002380003C000020000020DD
:1035500000000000000000000000003808002038D3
:103560000020F80023E8002F88003E0800380800FB
:1035700020180000700000000000000000000000A3
:10358000000000000000000008000014001FF7FC0D
:1035900030000620000200000000000000000000D3
:1035A0000000000000000000000000000000FFFF1D
:1035B000FF0000000000000000000000000000000C
:1035C0000000000000002000023000061FF7FC0091
:1035D00014000008000000000000000000000000CF
:1035E0000000000000000018000060000040000023
:1035F000400000200000100000080000040000044B
:1036000000000C000010000000000000000000009E
:103610000102030406070809000000000102030478
:103620004036000800000020140000006C01000873
:103630005436000814000020940D00008801000892
:103640000000000001000000100000000000000069
:043650000024F4005E
:0400000508000131BD
:00000001FF
